:020000040800F2
:10000000F0040020A1010008331A00083F1800087E
:10001000311A0008F3080008051F0008000000005E
:10002000000000000000000000000000371A000877
:10003000F508000800000000351A0008391A000809
:10004000BB010008BB010008BB010008BB010008A0
:10005000BB010008BB010008BB010008BB01000890
:10006000BB010008BB010008BB010008BB01000880
:10007000BB010008BB010008BB010008BB01000870
:10008000BB010008BB010008BB010008BB01000860
:10009000BB010008BB010008BB010008BB01000850
:1000A000BB010008BB010008BB010008BB01000840
:1000B000BB010008BB010008BB010008BB01000830
:1000C000BB010008BB010008BB010008BB01000820
:1000D000BB010008BB010008BB010008BB01000810
:1000E000BB010008BB010008BB010008BB01000800
:1000F000BB010008BB010008BB010008BB010008F0
:10010000BB010008BB010008BB010008BB010008DF
:10011000BB010008BB010008ED1A0008BB01000884
:10012000BB010008BB010008BB010008BB010008BF
:10013000BB010008BB010008BB010008BB010008AF
:10014000BB010008BB010008BB010008BB0100089F
:10015000BB010008BB010008BB010008BB0100088F
:10016000BB010008BB010008BB010008BB0100087F
:10017000BB010008BB010008BB0100080000000033
:10018000BB010008BB010008DFF810D000F062FBE3
:100190000048004775340008AFF30080F0040020E9
:1001A0000648804706480047FEE7FEE7FEE7FEE711
:1001B000FEE7FEE7FEE7FEE7FEE7FEE7D11A0008EE
:1001C000890100082DE9F05F0546002092469B4614
:1001D00088460646814640241BE02846414647465D
:1001E000224600F09FF953465A46C01A914110D357
:1001F00011461846224600F086F92D1A67EB0108D1
:100200004F4622460120002100F07DF917EB00093E
:100210004E41201EA4F10104DFDC484631462A4647
:100220004346BDE8F09FD2B201E000F8012B491E21
:10023000FBD270470022F6E710B513460A46044683
:100240001946FFF7F0FF204610BD2DE9FE4F80460E
:1002500081EA0300C00F0C46009021F0004123F01A
:100260000045B8EB0200A94105D240462146904620
:100270001C460B46024623F00040104347D0270D92
:10028000C7F30A00C3F30A510290401A01904028B4
:100290006BDAC3F3130040F4801B0098924620B140
:1002A0000023D2EB030A63EB0B0B01985946C0F114
:1002B0004002504600F027F906460D465046594682
:1002C000019A00F03FF910EB08006141002487EA31
:1002D000115284EAE7731A4340D0009A62B3019A3C
:1002E000012A4FEA075215DC001B61EB02014FF0B7
:1002F000004202EA0752CDE90042001C41F580119C
:1003000032462B4600F076F903B0BDE8F08F404648
:100310002146F9E7001B61EB0201001C41F5801347
:1003200000185B412018A2F5001747EB030140EAD3
:10033000D570B6196D4111E06D084FEA360645EAF1
:10034000C0754FEA0752001B61EB0201001C41F52A
:10035000801149084FEA30000019514132462B46BE
:1003600003B0BDE8F04F00F036B90098012240001C
:100370000023D0EB020263EBE073009821464FEAC2
:10038000E074B8EB000061EB0401E9E783F000439F
:100390005BE781F0004158E72DE9FE4F81EA030455
:1003A00004F0004421F0004100944FF0000B23F0D2
:1003B000004350EA01045ED052EA03045BD0C3F369
:1003C0000A54C1F30A552C44A4F2F3340194A0FB5F
:1003D0000254C1F3130141F48011C3F3130343F436
:1003E000801301FB024400FB034E840A970A44EA8F
:1003F000815447EA8357A4FB076802958D0A05FBE1
:1004000007854FEA932C04FB0C542705029D4FEA05
:10041000065847EA1637B5EB08056EEB070C870E52
:10042000920E47EA811742EA8312A7FB0201B6EB5C
:100430000B0164EB00042B0D43EA0C335E1844EB14
:100440001C50DA465146E7FB0201C5F313044FEA9C
:100450000B3343EA14534FEA0432019C43EA060388
:10046000A4F10C040294009CCDE900B400F0C2F8A1
:1004700003B0BDE8F08F00200146F9E700F000422C
:1004800030F000400AD0C10D01F56071C0F31600D4
:1004900042EA0151C208400711437047002001465B
:1004A000704701F0004330B421F0004150EA0102EE
:1004B00006D00A0DA2F56072C1F31301002A02DC16
:1004C00030BC00207047440F44EAC104C100E0186A
:1004D00030BC00EBC25000F047B830B50B460146C7
:1004E00000202022012409E021FA02F59D4205D3D3
:1004F00003FA02F5491B04FA02F52844151EA2F17D
:100500000102F1DC30BD202A04DB203A00FA02F1BE
:10051000002070479140C2F1200320FA03F31943F1
:1005200090407047202A04DB203A21FA02F0002193
:10053000704721FA02F3D040C2F1200291400843F3
:1005400019467047202A06DBCB17203A41FA02F001
:1005500043EAE07306E041FA02F3D040C2F1200220
:1005600091400843194670470029A8BF7047401CB6
:10057000490008BF20F00100704710B4B0FA80FCB9
:1005800000FA0CF050EA010404BF10BC704749B1F6
:10059000CCF1200421FA04F411FA0CF118BF012166
:1005A00021430843A3EB0C01CB1D4FEA00614FEA46
:1005B000102042BF002010BC704700EBC350104415
:1005C0000029A4BF10BC7047401C490008BF20F0A0
:1005D000010010BC704710B5141E73F1000408DA56
:1005E000401C41F1000192185B411A4301D120F0F7
:1005F000010010BD2DE9F04D92469B4611B1B1FAB4
:1006000081F202E0B0FA80F220329046FFF77BFFE1
:1006100004460F4640EA0A0041EA0B0153465A4697
:10062000084313D0114653EA010019D0C8F1400223
:100630005046FFF777FF05460E465046594642465C
:10064000FFF761FF084305D0012004E0204639464A
:10065000BDE8F08D0020054346EAE0762C433743A1
:100660000A986305E40AA0EB08000022FD0A44EAA8
:1006700047540A3002D500200146E9E70105101968
:100680006941DDE9084500196941BDE8F04DA2E77F
:100690002DE9F04D81EA030404F0004B21F0004500
:1006A00014464FF0000A23F0004150EA050220D022
:1006B00054EA01021DD0C5F30A570246C5F31303DD
:1006C000C1F31300C1F30A5640F4801543F48013BC
:1006D000A7EB0608101BD64608F2FD3873EB0500A1
:1006E00002D308F1010801E092185B41B8F1000F54
:1006F00003DA00200146BDE8F08D00204FF48011A0
:10070000064684460EE0171B73EB050705D3121B44
:1007100063EB050306434CEA010C49084FEA30003D
:1007200092185B4150EA0107EDD152EA030012D062
:1007300082EA040083EA0501084305D0101BAB419F
:1007400006D20122002306E000224FF0004302E01F
:100750006FF0010253101AEB06004CEB085110EB3E
:100760000A0041EB0B01BDE8F04DFFF734BF2DE966
:10077000FE4FC3F30A5701F000450024C1F30A56A7
:10078000C3F31303C1F3130143F4801312EB020A02
:10079000A64641F48011009543EB030CA7F1010B31
:1007A00016E0B0EB0A0061EB0C01071E71F10007C7
:1007B00007DA4FF00008D0EB080085F0004568EB41
:1007C0000101171A73EB0107EBD3761E001849419C
:1007D0005E45F6DA50EA010209D0CDE900E50022D3
:1007E00013460296FFF706FF03B0BDE8F08F2046E0
:1007F0000099F9E7C1F30A52C1F3130140F2FF3344
:1008000041F480119A4202DA00200146704740F21A
:1008100033439A42A2F2334202DC5242FFF782BED5
:10082000FFF771BE30B5041E71F1000404DB4FF018
:100830000044404264EB0101141E73F1000405DB27
:100840001C464FF00043524263EB0403994208BF39
:10085000904230BD064C074D06E0E06840F00103D1
:1008600094E8070098471034AC42F6D3FFF790FCA9
:10087000F8380008183900080EB5C10F80EAE0709A
:100880000844CA07002140F233438DE80E000A46AF
:100890000B46FFF7AFFE03B000BD0EB540F233418B
:1008A00002910021CDE900110A460B46FFF7A2FE96
:1008B00003B000BD70B5C1F30A5201F00045002439
:1008C000C1F3130140F2FF3341F480119A4201DA7F
:1008D000002070BD40F233439A42A2F2334203DC5F
:1008E0005242FFF71FFE00E090402C43F1D04042FF
:1008F00070BDFEE7704772B6FEE700002DE9F84FC5
:1009000000224FF0010803254FF00F0E0B6808FA84
:1009100002F42340A3426ED14E68012E05D0022E70
:1009200003D0112E01D0122E12D186684FEA420C4C
:1009300005FA0CF7BE43CF6807FA0CF73743876018
:100940004668A6430C79C4F30014944034434460D1
:10095000C668570005FA07FC8C6826EA0C06BC40FE
:100960003443C4604C68022C01D0122C13D1D4083B
:1009700000EB8404A346D4F8209054074FEAD46ACD
:100980000EFA0AF629EA06090E6906FA0AF646EA96
:100990000906CBF8206006680C7926EA0C0604F0FC
:1009A0000304BC40344304604C68E40065D5364C15
:1009B000266846F480462660246822F0030604F484
:1009C00080440094314C3444A446D4F80848960737
:1009D000370F0EFA07F6B4432D4EB04201D1002670
:1009E00024E02C4EB04201D101261FE02A4EB04235
:1009F00002D102261AE040E0284EB04201D103267F
:100A000014E0274EB04201D104260FE0254EB0423B
:100A100001D105260AE0244EB04201D1062605E0A8
:100A2000224EB04201D1072600E00826BE402643F0
:100A3000CCF808681E4E34684F689C43FF0300D50D
:100A40001C4334601A4C241D26684F689E43BF0324
:100A500000D51E432660164E083634684F689C4306
:100A6000FF0200D51C433460114E0C3634684F68C9
:100A70009C43BF0200D51C433460521C102AFFF473
:100A800045AFBDE8F88F0000443802400030014017
:100A9000000002400004024000080240000C024036
:100AA000001002400014024000180240001C0240E6
:100AB000003C01400AB1816170470904FBE7000076
:100AC00001488068704700001800002002488168D3
:100AD0000278114481607047180000200B4810B55F
:100AE000016841F400710160016841F480610160B6
:100AF000016841F480710160032000F06FF800206C
:100B000000F006F800F024F8002010BD003C024080
:100B100070B50D4D04464FF47A712878B1FBF0F0B2
:100B20000A490968B1FBF0F000F002FB48B9102C4B
:100B300007D200222146501E00F030F800206C60E1
:100B400070BD012070BD00001800002024000020AE
:100B50000A4808B5016841F480410160006800F46A
:100B6000804000900548001F016841F080510160FD
:100B7000006800F08050009008BD0000443802403A
:100B8000002809DB00F01F0201219140400980008C
:100B900000F1E020C0F8001170470000F0B40E4BE7
:100BA0001B680C46C3F30223C3F10705042D00D9CB
:100BB0000425191D072901D2002300E0DB1E0126B0
:100BC00006FA05F1491E214099409E40761E1640C6
:100BD0003143F0BC01F0C0B90CED00E0064900F073
:100BE000070208684FF6FF03184040EA0220034A54
:100BF00010430860704700000CED00E00000FA05AB
:100C00002DE9F0470E46050065D0DFF81481D8F8CD
:100C10000000F7B200F00F00B04207D288F8007071
:100C2000D8F8000000F00F00B04254D128683D4CC5
:100C3000810712D5400703D5206840F4E0502060BA
:100C40002878000703D5206840F4604020602068C1
:100C5000A96820F0F000084320602878C0072DD054
:100C6000304968680839012812D0022813D00328B7
:100C700011D00968890700292DDA216821F00301C4
:100C800001432160FFF71CFF814641F2883A0EE0E4
:100C900009688903EFE709688901ECE7FFF710FFAE
:100CA000A0EB0901514502D90320BDE8F087206877
:100CB000696800F00C00B0EB810FEFD1D8F800109C
:100CC000404601F00F01B14207D90770006800F0FB
:100CD0000F00B04201D00120E7E72878400705D592
:100CE0002068E96820F4E050084320602878000775
:100CF00006D52068296920F4604040EAC1002060E0
:100D000000F038F82168084AC1F30311515CC8406B
:100D10000649086006480068FFF7FAFE0020C4E7AD
:100D2000003C024008380240C03700082400002080
:100D30001C0000200448054900680968044AC1F302
:100D40008221515CC84070472400002008380240CE
:100D5000D03700080448054900680968044AC1F30F
:100D60004231515CC84070472400002008380240DE
:100D7000D0370008154810B5006810F00C02144870
:100D800013D04110042A0FD0082A0ED10F4C241F73
:100D90002268236802F03F025B0207D52068C0F397
:100DA0008810A0FB010106E0084610BD2168C1F3D0
:100DB0008811A1FB00010023FFF704FA2168C1F3A9
:100DC0000141491C4900B0FBF1F010BD0838024058
:100DD0000024F4002DE9F84F04006ED02078DFF8ED
:100DE0003C93C007A9F104054AD009F10400016849
:100DF000C1F38101012908D00068C0F381000228F5
:100E00000AD1D9F80000400206D52868800337D5FA
:100E100060680028E1D033E06068B0F5803F10D012
:100E2000B0F5A02F286810D020F480302860286802
:100E300020F4802028606068A8B1FFF741FE0646D4
:100E40000DE0286840F48030F4E740F4802028600A
:100E5000F7E700BFFFF734FE801B642873D82868CB
:100E60008003F7D50CE0FFF72BFE064605E000BF38
:100E7000FFF726FE801B6428F0D828688003F7D48B
:100E80002078DFF89C8280074FF0000A3ED5A34807
:100E9000001D016811F00C0F08D00068C0F381003C
:100EA00002280BD1D9F80000400207D42868800737
:100EB00016D5E068012800D112E02BE1E068B8B156
:100EC0000120C8F80000FFF7FBFD064605E000BF63
:100ED000FFF7F6FD801B0228C0D828688007F7D5E9
:100EE0002868216920F0F80040EAC10028600DE080
:100EF000C8F800A0FFF7E4FD064604E0FFF7E0FDB8
:100F0000801B02281FD828688007F7D420780007A4
:100F100022D5824E83486169703671B1012101602A
:100F2000FFF7CEFD074604E0FFF7CAFDC01B02280D
:100F300009D830688007F7D50EE0C0F800A0FFF7A9
:100F4000BFFD074605E082E0FFF7BAFDC01B02289F
:100F50007DD830688007F7D42078400768D5DFF85F
:100F6000BCB100270BF13C0BDBF80000C0000BD438
:100F7000DBF8001041F08051CBF80010DBF80000E6
:100F8000012700F080500090674E3068C00510D4F3
:100F9000306840F480703060FFF792FD009005E00B
:100FA000FFF78EFD0099401A022850D83068C0051E
:100FB000F6D55A4EA0686C3601280FD00528306847
:100FC00010D020F001003060306820F00400306064
:100FD000A068B8B1FFF774FD00900FE0306840F0F2
:100FE0000100F4E740F004003060F7E7FFF768FD28
:100FF0000099411A41F28830814266D830688007F2
:10100000F4D50EE0FFF75CFD009007E0FFF758FD18
:101010000099411A41F28830814256D830688007E1
:10102000F4D42FB1DBF8001021F08051CBF8001080
:10103000A069C8B33949091D0968C1F381010229B2
:101040004AD00228504607D0C8F8600000E03CE0D3
:10105000FFF736FD04463BE04746C8F86000FFF75F
:101060002FFD064605E000BFFFF72AFD801B022882
:101070002BD828688001F7D4D4E907010843A16A76
:101080002A4A490802EB0141626A41EA8211084397
:1010900094F82C1040EA0161C9F80010012038666C
:1010A000FFF70EFD044606E036E000BFFFF708FD3F
:1010B000001B022809D828688001F7D52CE000BF62
:1010C000FFF7FEFC001B022802D90320BDE8F88FC1
:1010D00028688001F4D41FE00128F7D0D9F8000077
:1010E000E26900F48001914214D1226A00F03F01CC
:1010F00091420FD147F6C071626A0140914209D115
:10110000A26A00F44031914204D1E16A00F07060BB
:10111000884201D00120D9E70020D7E704380240F7
:1011200000004742800E4742007000400000FFFF71
:1011300010B5401EB0F1807F01D3012010BD4FF0EB
:10114000E02460610F21601700F006FF0020A0611D
:1011500007202061002010BD7047704710B590F83F
:101160003C20012A22D0012280F83C20CA688C68E9
:1011700022F4407222434C6822F4806222430C68BD
:1011800022F4006222430C6922F4805222434C690B
:1011900022F400522243C969002322F480420A4308
:1011A00001684A6480F83C30002010BD022010BD68
:1011B00070B590F83C20012A32D0012480F83C40E0
:1011C000022280F83D2003685A689D6822F070066C
:1011D0000A6832435A60134B02689A4214D0B2F143
:1011E000804F11D0104B9A420ED0104B9A420BD028
:1011F0000F4B9A4208D00F4B9A4205D00E4B9A42A1
:1012000002D00E4B9A4204D1496825F0800319435D
:10121000916080F83D40002180F83C10084670BD88
:10122000022070BD000001400004004000080040A2
:10123000000C004000040140004001400018004044
:1012400010B504460068042200F0C7FC2068416C19
:1012500041F4004141642068816801F007010629DA
:1012600003D0016841F001010160002010BD10B5FC
:10127000040003D094F83D0010B107E0012010BD38
:10128000002084F83C00204600F00CF8022084F88E
:101290003D00211D206800F02FFC012084F83D0056
:1012A000002010BD08B500680B49884212D10B48D8
:1012B000016841F0100101600068002200F0100098
:1012C000009011463620FFF769FCBDE80840362043
:1012D000FFF756BC08BD0000001000404038024037
:1012E0000168CA6842F00102CA600068816801F0C2
:1012F0000701062903D0016841F0010101600020C7
:101300007047704770B50446006801694FF00005EA
:10131000C943890715D4C168C943890711D4E91E97
:10132000016101202077206880698007204602D073
:10133000FFF7E7FF04E000F0D9F8204600F06EF96F
:10134000257720680169C943490717D4C168C94393
:10135000490713D46FF0040101610220207720684F
:10136000806910F4407F204602D0FFF7CAFF04E0F6
:1013700000F0BCF8204600F051F92577206801699B
:10138000C943090716D4C168C943090712D46FF0CD
:1013900008010161042020772068C0698007204689
:1013A00002D0FFF7AEFF04E000F0A0F8204600F006
:1013B00035F9257720680169C943C90617D4C16882
:1013C000C943C90613D46FF01001016108202077CA
:1013D0002068C06910F4407F204602D0FFF791FFDB
:1013E00004E000F083F8204600F018F92577206823
:1013F0000169C943C90708D1C168C943C90704D1F4
:10140000891E0161204600F02DF920680169C94359
:10141000090609D4C168C943090605D46FF08001E3
:1014200001612046FFF798FE20680169C94349061B
:1014300009D4C168C943490605D46FF04001016170
:10144000204600F039F920680169C94389060BD4A8
:10145000C168C943890607D46FF0200101612046A5
:10146000BDE87040FFF779BE70BD000070B586B072
:10147000044614216846FEF7DDFE184920688842BC
:1014800029D117480024016841F002010160016878
:1014900001F002010591016841F00101016000685D
:1014A000022500F0010005904FF460400090CDE966
:1014B00001540126CDE9034669460A48FFF71EFAA2
:1014C0004FF4E0600090CDE90154CDE90346694650
:1014D0000548FFF713FA06B070BD00000000014098
:1014E000303802400004024000000240704770B5EE
:1014F000044690F83C000D4601280DD0012684F8E2
:101500003C60022084F83D0042B1042A18D0082A29
:101510002AD00C2A4DD139E0022070BD206800F09D
:1015200069FB2068816941F0080181612068816957
:1015300021F004018161206881692A69114311E069
:10154000206800F087FB2068816941F400618161B7
:101550002068816921F480618161206881692A693C
:1015600041EA0221816124E0206800F0A9FB2068A3
:10157000C16941F00801C1612068C16921F004011D
:10158000C1612068C1692A69114311E0206800F037
:10159000CBFB2068C16941F40061C1612068C16969
:1015A00021F48061C1612068C1692A6941EA022190
:1015B000C16184F83D60002084F83C0070BD10B526
:1015C000040003D094F83D0010B107E0012010BDE5
:1015D000002084F83C00204600F00CF8022084F83B
:1015E0003D00211D206800F087FA012084F83D00AD
:1015F000002010BD08B500680649884208D1064899
:10160000016841F001010160006800F001000090F4
:1016100008BD00000000014044380240704700004F
:1016200010B504460068012200F0CAFA0B49206890
:10163000884202D00A49884203D1416C41F40041FA
:1016400041642068816801F00701062903D0016820
:1016500041F001010160002010BD000000000140C8
:101660000004014010B500680D49884217D10D4CA7
:101670002068FEF703FF9FED0C1B53EC112BFEF7C8
:10168000E4FDFEF70EFF01EE100ADFED090A84ED1E
:10169000001ABDE810409FED070A01F029BE10BDF9
:1016A00000100040140000209A9999999999B93F27
:1016B000000000009A99993E704770B5040004D06C
:1016C00094F83900002510B106E0012070BD84F8BF
:1016D0003850204600F022F8242084F83900206891
:1016E000C16821F40051C160204600F045FB20682C
:1016F000016921F4904101612068416921F02A01CA
:1017000041612068C16841F40051C160E563202057
:1017100084F8390084F83A00002070BD10B586B016
:10172000044614216846FEF785FD13492068884267
:1017300020D112480021026842F0100202600068C5
:1017400000F0100005900D481438026842F00202C3
:101750000260006800F002000590C02000900220A6
:10176000CDE9010103200390072004906946044855
:10177000FFF7C4F806B010BD001001404438024025
:10178000000402402DE9F843044690F839001F4652
:1017900016460D46202850D1B5B1AEB194F83800A8
:1017A00001284AD0012084F838004FF00008C4F81E
:1017B0003C80212084F83900FFF782F9A684814615
:1017C000E68484F8388026E00120BDE8F883E08CC8
:1017D000401EE084A0684B46B0F5805F4FF00002E9
:1017E0004FF080012046009703D000F059FBE8B984
:1017F0000DE000F055FBC8B928882168C0F3080047
:101800004860206908B16D1C05E0AD1C03E021684B
:1018100015F8010B4860E08C0028D8D14B46002217
:1018200040212046009700F03BFB08B10320CCE7A5
:10183000202084F839000020C7E70220C5E7FEE732
:10184000F0B587B014216846FEF7F4FC2548002562
:10185000016841F020010160016801F0200105915B
:10186000016841F080010160016801F0800105918B
:10187000016841F002010160016801F00201059177
:10188000016841F001010160016801F00101059169
:10189000016841F0100101600068012200F01000B1
:1018A000114E9402059021463046FFF703F90F4F81
:1018B000012203213846FFF7FDF800940124694610
:1018C00030460194CDE90245FFF718F80320CDE931
:1018D000000469463846CDE90245FFF70FF807B026
:1018E000F0BD0000303802400014024000100240F9
:1018F00010B592B000240F941C2168461094FEF796
:1019000099FC202107A8FEF795FC29482749C0E942
:101910000014202181604FF4AF51C0E903144461E9
:101920008461FFF74CFE08B1FEF7E5FF0F940FA9A5
:101930001F481094FFF73CFC08B1FEF7DCFF602065
:10194000CDE90004029403940494059400226946AE
:1019500017480694FFF7CBFD08B1FEF7CCFF042231
:1019600069461348FFF7C3FD08B1FEF7C4FF08221C
:1019700069460F48FFF7BBFD08B1FEF7BCFF4FF407
:101980008070CDE908402820CDE90A0407940C9422
:1019900007A907480E94FFF7E1FB08B1FEF7ABFF7C
:1019A0000348FFF763FD12B010BD000000000140C6
:1019B000300000201CB500240E4800940C4901940E
:1019C000016040F28F61C0E9011463218461C1604C
:1019D000FFF74DFC08B1FEF78EFF009469460548FD
:1019E0000194FFF7E5FB002801D0FEF784FF1CBD42
:1019F00000100040700000200C4810B50A4901603A
:101A00004FF4E1314160002181600C22C160C0E9E6
:101A100004128161C161FFF750FE002803D0BDE8C8
:101A20001040FEF768BF10BD00100140B00000205C
:101A3000FEE7FEE770477047FFF748B830B593B050
:101A400030216846FEF7F6FB14210CA8FEF7F2FBE6
:101A50001D480025016841F080510160006800F0D8
:101A6000805011901948016841F48041016000687C
:101A7000022400F4804011900120009000040190A5
:101A80008001CDE9064008AA0420A82182E81300BD
:101A90000B906846FFF79EF908B172B6FEE70CA9F5
:101AA0000F2081E831004FF4A0500F904FF4805088
:101AB000109005210CA8FFF7A3F8002801D072B6FA
:101AC000FEE713B030BD0000403802400070004017
:101AD0000548016841F47001016003494FF000605E
:101AE000803908607047000088ED00E00148FFF78A
:101AF00009BC000070000020F0B50268254C264D9E
:101B0000264E274F274B4FF0804CA04209D060450E
:101B100007D0A84205D0B04203D0B84201D09842C5
:101B200004D122F0700E4A6842EA0E02A0421BD095
:101B3000604519D0A84217D0B04215D0B84213D092
:101B4000984211D0184DA8420ED0184DA8420BD083
:101B5000174DA84208D0174DA84205D0164DA842EF
:101B600002D0164DA84203D122F44075CA682A4318
:101B70004D6922F080022A4302608A68C2620A68C4
:101B80008262A04201D0984201D10969016301211A
:101B90004161F0BD00000140000400400008004029
:101BA000000C00400004014000400140004401409E
:101BB0000048014000180040001C00400020004088
:101BC00010B501F01F030121046A99408C4304629F
:101BD000016A9A401143016210BD10B501F01F0364
:101BE0000421046A99408C430462016A9A401143BB
:101BF000016210BDF0B5026A22F001020262036ABE
:101C000042688469124E24F073050C682C4323F05B
:101C100002058B682B430D4DA84201D0B04205D17F
:101C200023F00807CB683B4323F00403A84201D00C
:101C3000B04205D14D6922F4407215438A692A43A6
:101C400042608461496841630362F0BD0000014065
:101C500000040140F0B5026A22F010020262026A3A
:101C6000436884690D6824F4E64444EA05248D68D9
:101C700022F0200242EA05120F4D104EA84201D078
:101C8000B04206D1CF6822F0800242EA071222F069
:101C90004002A84201D0B04207D14D6923F440630D
:101CA00043EA85038D6943EA85034360846149689B
:101CB00081630262F0BD00000000014000040140A9
:101CC000F0B5026A22F480720262026A4368C46953
:101CD00022F4007224F073050C68124E2C438D68B8
:101CE00042EA05220E4DA84201D0B04206D1CF688B
:101CF00022F4006242EA072222F48062A84201D064
:101D0000B04207D14D6923F4405343EA05138D696E
:101D100043EA05134360C4614968C1630262F0BDD0
:101D2000000001400004014030B5026A22F48052F4
:101D30000262046A4268C3690D6823F4E64343EA19
:101D400005238D6824F4005444EA0534084DA84264
:101D500002D0084DA84204D14D6922F4804242EAE3
:101D600085124260C36149680164046230BD0000AD
:101D700000000140000401402DE9F04104460068E4
:101D80000169E26821F44051114301612169A068B1
:101D9000E26908436169114308432168CA6849F24E
:101DA0000C639A430243CA6020684169A26921F426
:101DB000407111434161E069192764253226B0F56D
:101DC000004F354A354920684FF0000806D0884258
:101DD00001D0904236D1FEF7BDFF35E0884201D0F8
:101DE000904202D1FEF7B6FF01E0FEF7A3FF616863
:101DF0004A18A0FB070148EB0803FEF7E3F9014688
:101E0000B0FBF5F00201B1FBF5F06FF01803584399
:101E100001EB800006EBC000B0FBF5F000F0F8002D
:101E200002EB4002B1FBF5F0584301EB800006EBFA
:101E3000C000B0FBF5F000F0070021681044886096
:101E4000BDE8F081FEF776FF61688B0F8A00A0FB8A
:101E50000701FEF7B7F90146B0FBF5F06FF0180285
:101E6000504301EB800006EB0010B0FBF5F000F0F2
:101E7000F002B1FBF5F002EB0012B1FBF5F06FF0F0
:101E80001803584301EB800006EB0010B0FBF5F09F
:101E900000F00F00D1E700000014014000100140E5
:101EA0002DE9F041984617460E460446069D1DE072
:101EB000681C1BD02DB1FEF703FEA0EB0800A84262
:101EC00014D92068C16821F4D071C16020684169CB
:101ED00021F001014161202084F8390084F83A00A2
:101EE000002084F838000320BDE8F08120680068F5
:101EF00036EA000004D00020B842D9D00020F3E731
:101F00000120F9E7FEE700000FB4054B10B503A967
:101F1000044A029800F068FE10BC5DF814FB000053
:101F20005D3400082800002003B4019841000098A7
:101F300050EAC12018BF04204A0D18BF40F001002C
:101F400040F2FF72B2EB515F08BF40F0020001287F
:101F500008BF052002B070470907090E002804DBFE
:101F600000F1E02080F80014704700F00F0000F14D
:101F7000E02080F8141D704710B52F499FED2C1BF1
:101F80002DED020B84B0059820F000408842D8BFA8
:101F90009DED040B2DDD2949884209D1049840B9F3
:101FA0004FF0010000F058FD00F026FD06B010BD16
:101FB00005DB9DED040B00F013FD06B010BD684677
:101FC0009DED040B00F024F910F0030004BF9DED1B
:101FD000021B9DED000B0CD001280ED09DED021BC5
:101FE0009DED000B022817D0012000F061FC06B027
:101FF00010BD00F029FB06B010BD9DED021B9DED4C
:10200000000B012000F054FC51EC100B81F000415A
:1020100006B041EC100B10BD00F016FB51EC100B9C
:1020200081F0004106B041EC100B10BD0000000033
:102030000000000000000000FB21E93F0000F07FED
:1020400010B52DED040B86B09DED060B10EE100AB9
:1020500010EE901A8DED000B002818BF01200843E8
:1020600020F00040C0F17F6000F1E040C00F21D1BE
:102070009DED080B10EE101A10EE900A8DED000B7E
:10208000002918BF0121084320F00040C0F17F6003
:1020900000F1E040C00F0DD129490798B1EB400F86
:1020A00004BF0698002842D00998400004BF089851
:1020B00000283CD09DED080B53EC102B9DED060B3A
:1020C00051EC100BFEF753FBCDE902019DED020B25
:1020D00040F2FF7110EE900A8DED000B31EA1050C6
:1020E00021D00798039900F0004001F00041884298
:1020F00019D09DED080B8DED040B9DED020B8DEDC0
:10210000000B10EE900A059961F31E0005909DEDFD
:10211000041B9DED020B51EC110B53EC102BFEF741
:1021200038F9CDE902019DED020B0AB010BD012086
:1021300000F092FC0AB0BDE8104000F05DBC000069
:102140000000E0FF0000000010B52F499FED2C1BA0
:102150002DED020B84B0059820F000408842DCBFD2
:1021600000209DED040B32DD2849884209D10498F6
:1021700040B94FF0010000F06FFC00F03DFC06B0EC
:1021800010BD05DB9DED040B00F02AFC06B010BD70
:1021900068469DED040B00F03BF810F0030011D0F1
:1021A000012818D09DED021B9DED000B02281AD0CE
:1021B00000F04AFA51EC100B81F0004106B041ECFE
:1021C000100B10BD9DED021B9DED000B012000F0DA
:1021D0006FFB06B010BD9DED021B9DED000B00F0E6
:1021E00033FA06B010BD012000F062FB51EC100B79
:1021F00081F0004106B041EC100B10BD0000000062
:102200000000000000000000FB21E93F0000F07F1B
:102210002DE9F14F04462DED020B2DED088B8AB010
:102220009FEDE70B80ED020B139EE74826F000457B
:1022300085420ADC9DED120B002084ED000B0AB0F4
:10224000BDEC088B03B0BDE8F08FE0489FEDE0AB3C
:102250009FEDE1BBA84247DDE14F9FEDE39B9FED82
:10226000E48B9DED120B53EC1A2B51EC100B002E4E
:102270001CDDFEF78BF841EC100BBD4208D053EC8F
:102280001B2B51EC100BFEF781F8C4E900010BE0A9
:1022900053EC192B51EC100BFEF778F853EC182B7C
:1022A000FEF774F8C4E900010120C8E7FDF7CDFF8F
:1022B00041EC100BBD4208D053EC1B2B51EC100B22
:1022C000FDF7C3FFC4E900010BE053EC192B51ECFF
:1022D000100BFDF7BAFF53EC182BFDF7B6FFC4E95E
:1022E00000014FF0FF30AAE7C348A84279DB9DED1B
:1022F000120B51EC100B01F0A5F841EC180B9FEDFF
:10230000C00B53EC102BFEF747F89FEDBF1B53ECAF
:10231000112BFDF79AFFFEF7CDFA0746FEF7ACFA50
:1023200041EC190B53EC1A2BFEF736F853EC182B33
:10233000FEF72FF841EC180B53EC1B2B51EC190B4B
:10234000FEF72AF8DFF8C8A241EC100B4FEA155847
:102350000125FA4453EC102B51EC180BFEF716F83C
:10236000032DC4E900013DD0C1F30A5005EB45112E
:10237000A8EB00001139814234DA0AEB051BB0EEFC
:1023800048AA9BED000BF0EE68AA53EC102B51EC21
:10239000190BFEF701F841EC1B0B51EC1A0B53EC37
:1023A0001B2BFDF7F3FF41EC180B51EC1A0B53EC10
:1023B000182BFDF7EBFF53EC1B2BFDF7E7FF9BED15
:1023C000020B41EC1A0B53EC102B51EC190BFDF7DF
:1023D000E3FF53EC1A2BFDF7D9FF41EC100B6D1CFA
:1023E000B8E70EE0002EA8BF3846BFF628AF94ED40
:1023F000000B51EC100B81F00041C4E90001784260
:102400001DE7C6F3130040F4801EC6F30A50A0F285
:10241000F530471100F01F05C5F12000DDF848B088
:1024200008900020069007900520EC467949002D81
:1024300007EB0002794408BF51F8221009D051F887
:10244000223001EB8201AB404A68089922FA01F17F
:102450001943A1FB0E26A1FB0B131A449A4234BF69
:102460000123002303EB06080CEB8003D3E901A64C
:102470000E448E4234BF0121002192448A4411B19E
:10248000924502D903E0924501D2012100E00021EA
:10249000C3E901A641444CF82010011EA0F101003F
:1024A000C4DC029800F10050850F0298DDE9036753
:1024B0008000DDF81480FEF7DFF941EC1A0B30469E
:1024C000FEF7EBF99FED541B53EC112BFDF764FF66
:1024D00041EC1B0B3846FEF7E0F99FED511B53EC26
:1024E000112BFDF759FF41EC180B4046FEF7D5F9CB
:1024F0009FED4D1B53EC112BFDF74EFF41EC190BDB
:1025000051EC180B53EC192BFDF79FFE53EC1B2BD2
:10251000FDF79BFE53EC1A2BFDF797FECDE9080162
:10252000002008909DED080B53EC1A2B51EC100B7A
:10253000FDF72CFF53EC1B2BFDF728FF53EC182B5A
:10254000FDF724FF53EC192BFDF723FF9FED381BFC
:1025500053EC112BFDF720FF9FED370B41EC180BCF
:1025600053EC102B9DED080B51EC100BFDF714FFF5
:1025700053EC182BFDF769FE9FED310B41EC180B66
:1025800053EC102B9DED080B51EC100BFDF704FFE5
:1025900053EC182BFDF759FE41EC100B139810F07B
:1025A000004F06D06D4251EC100B81F0004141EC20
:1025B000100B284684ED000B41E6000000000000EF
:1025C0000000000000000000FB21E93F7CD9024030
:1025D00000004054FB21F93F3163621A61B4D03DE1
:1025E000FB21F93F000000000000601A61B4D03DFB
:1025F0007370032E8A19A33BFB21394100000000B0
:1026000083C8C96D305FE43F000000000000E03F78
:10261000B214000000140000000000000000103E92
:10262000000000000000103C000000000000103A14
:10263000182D4454FB21F93D3326A611460B113CBD
:1026400000000054FB21F93D10B52DED040B2DEDDC
:10265000088B82B0B0EE419AF0EE619A0B9820F0B0
:1026600000449FED4BABB4F1795F11DA9DED0A0B9D
:1026700051EC100BFEF71EF9002801BFB0EE4A0A1C
:10268000F0EE6A0A02B0BDEC088B04BF04B010BDC6
:102690009DED0A0B53EC102B51EC100BFDF77CFE5B
:1026A00041EC180B3C480621B0EE480AF0EE680AEF
:1026B000784400F081F853EC182B51EC100BFDF727
:1026C0006BFE9DED0A0B41EC1B0B53EC192B51ECEF
:1026D000100BFDF761FE41EC190B53EC1B2B51EC79
:1026E000180BFDF759FE53EC192BFDF74FFE9FED2C
:1026F0002C0B41EC190B53EC102B51EC180BFDF784
:102700004BFE41EC100B2848844210DA53EC192B95
:1027100051EC100BFDF73AFE53EC1A2BFDF739FE86
:1027200041EC100B02B0BDEC088B04B010BD1F488B
:10273000A042BCBF9FED1E1B8DED001B06DBA4F568
:1027400000100190002000909DED001B51EC100B3B
:1027500053EC112BFDF71AFE9DED000B41EC180B0D
:1027600053EC102B51EC1A0BFDF710FE41EC1A0B39
:1027700053EC192B51EC180BFDF708FE53EC1A2BF8
:10278000FDF707FE41EC100BCCE700000000000055
:10279000000000000000F03F2411000000000000D5
:1027A000000000000000E03F3333D33F0000E93F6A
:1027B000000000000000D23F70B504462DED028BF2
:1027C0004D1E00EBC500B0EE408AF0EE608A90ED41
:1027D000000B35F0060017D053EC182B51EC100B02
:1027E000FDF7DAFD41EC100B6D1E04EBC50090ED1A
:1027F000001B51EC100B53EC112BFDF726FD41ECA7
:10280000100B35F00600E7D1022D36D0042D1CD078
:10281000062D1CBFBDEC028B70BD53EC182B51EC88
:10282000100BFDF7B9FD94ED0A1B53EC112BFDF7CE
:102830000CFD53EC182BFDF7AFFD94ED081B53EC8A
:10284000112BFDF702FD41EC100B53EC182B51EC52
:10285000100BFDF7A1FD94ED061B53EC112BFDF7BA
:10286000F4FC53EC182BFDF797FD94ED040B53EC9F
:10287000102BFDF7EAFC41EC100B53EC182B51EC3C
:10288000100BFDF789FD94ED021B53EC112BFDF7A6
:10289000DCFC53EC182BFDF77FFD94ED001B53EC93
:1028A000112BFDF7D2FCBDEC028B41EC100B70BD7F
:1028B00031B504462DED040B2DED0A8BB0EE41BA77
:1028C000F0EE61BA0B989DED0A0B20F00040B0F1DC
:1028D000795F0DDA51EC100BFFF726FB042808BFD7
:1028E00000F09AF89DED0A0BBDEC0A8B05B030BDE7
:1028F00053EC102B51EC100BFDF74EFD41EC180B77
:102900009DED0A0B53EC182B51EC100BFDF744FD19
:1029100041EC190B2C48B0EE480AF0EE680A05218C
:102920007844FFF749FF9FED2ACBB0EE40AAF0EEC6
:1029300060AA9CB353EC1C2B51EC190BFDF72CFD3A
:1029400041EC1C0B53EC1A2B51EC190BFDF724FD39
:102950009FED210B41EC190B53EC102B51EC1B0B91
:10296000FDF71AFD53EC192BFDF710FD53EC182B56
:10297000FDF712FD53EC1B2BFDF708FD53EC1C2B50
:10298000FDF704FD9DED0A1B53EC112BFDF701FD36
:10299000BDEC0A8B05B041EC100B30BDFFE753ECEA
:1029A0001A2B51EC180BFDF7F7FC53EC1C2BFDF721
:1029B0004CFC53EC192BFDF7EFFC9DED0A1B53EC7F
:1029C000112BFDF742FCE3E7AC0F00000000000014
:1029D000495555555555C5BF000000000000E03F62
:1029E00010B553EC102B51EC100BFDF72EFC41EC05
:1029F000100B10BD000000009FED050B10B553EC4F
:102A0000102B51EC100BFDF743FE41EC100B10BDE9
:102A100000000000000000009FED050B10B553EC16
:102A2000102B51EC100BFDF7B7FC41EC100B10BD57
:102A3000000000000000001002E008C8121F08C1DA
:102A4000002AFAD170477047002001E001C1121F2F
:102A5000002AFBD170470000014908607047000060
:102A60002C0000202DE9FF5F82B00021DDE9043059
:102A7000020DDDF840B0034318D044F61050A2F226
:102A8000FF3242431514119801281FD0A5EB0B000B
:102A9000401C5FEA000A4FF000064E4FDFF8389105
:102AA000B046504615D5CAF1000413E01198012430
:102AB0004AA3012801D16FEA0B010298119AC0E9DB
:102AC0000031C0E9024206B0BDE8F09FCBF1000042
:102AD000DFE704460021404A491842EB0450CDE9A3
:102AE000001012E0E00707D032463B464046494618
:102AF000FDF752FC8046894632463B461046194651
:102B0000FDF74AFC06460F466410002CEAD1DDE9C9
:102B10000401DDE90023BAF1000F06DAFDF73CFC01
:102B200042464B46FDF738FC05E0FDF7B1FD424655
:102B30004B46FDF7ADFD04460E460022284BFDF73F
:102B400071FE03D84FF0FF30014607E00022254B0D
:102B500020463146FDF779FBFDF74CFE102409E0D5
:102B6000002C0ADB0A220023FDF72CFB039B3032EA
:102B70001A55641E50EA0102F2D1641C039AC4F192
:102B800011031444119A012A03D0012208430DD1E4
:102B90000AE0084304D000204FF0110B119072E7B7
:102BA000A3EB0B056D1E0DE05B4504DD4FF000024D
:102BB00005F1010504E003DA4FF00002A5F101057B
:102BC000002AECD002981199C0E90231C0E9004511
:102BD00079E70000000014400000F03F30000000E2
:102BE0000000F0430000E03F2DE9FF4F95B09A460A
:102BF000884606460025EEE1252877D100242746A1
:102C0000F94A0121039400E0044316F8013F203BF8
:102C100001FA03F01042F7D130782A2811D06FF072
:102C20002F033078A0F13002092A16D8039A44F015
:102C3000020402EB820203EB42021044761C039072
:102C4000EFE758F8042B0392002A03DA504244F4C9
:102C50000054039044F00204761C30782E2816D1DC
:102C600016F8010F44F004042A280DD06FF02F024B
:102C70003078A0F13003092B09D807EB870302EB6A
:102C80004303C718761CF3E758F8047B761C3078AA
:102C90006C280FD006DC4C2817D068280DD06A2885
:102CA00014D104E0742810D07A280FD10DE044F438
:102CB00000140AE044F4801401E044F440147278F3
:102CC000824202D104F58014761C761C3078662886
:102CD0000BD013DC582877D009DC002875D04528A4
:102CE000F6D04628F4D047281AD193E118E063289B
:102CF00035D0642879D0652812D18BE1702873D043
:102D000008DC6728F1D069286FD06E280DD06F28B5
:102D100006D1ACE073282CD0752874D0782853D015
:102D20005246179990476D1C54E1C4F30250022893
:102D300009D003280DD0D8F8001004280DD00D605C
:102D400008F1040846E1D8F80010EA17C1E900527A
:102D5000F6E7D8F800100D80F2E70D70F0E718F8EC
:102D6000041B8DF8001000208DF80100EB460120B7
:102D700003E058F804BB4FF0FF3061074FF000014B
:102D800002D40DE009F101018946B9420FDA81450B
:102D9000F8DB1BF809100029F4D108E009F1010162
:102DA00089468142FADB1BF809100029F6D1039805
:102DB0005346A0EB090721463846179A00F080FADF
:102DC000284400EB090507E044E008E10DE01BF8AA
:102DD000010B524617999047B9F10109F7D25346B2
:102DE00021463846179AF2E039E00A21C4F302522C
:102DF0004FF0000B0091022A06D058F8040BC117BF
:102E0000032A09D00AE023E008F1070020F00702B6
:102E1000F2E80201904605E000B2C117042A01D190
:102E200040B2C117002906DA0A460021404261EB90
:102E300002012D2202E0220504D52B228DF8042068
:102E4000012203E0E20701D02022F7E7914657E094
:102E50000A2100E010214FF0000B00910BE010213F
:102E60004FF0000B44F004040827009103E0082011
:102E70004FF0000B0090C4F30252022A05D058F81C
:102E8000040B0021032A08D008E008F1070020F015
:102E90000702F2E80201904603E080B2042A00D162
:102EA000C0B24FF0000922072AD53278702A07D025
:102EB000DDF800C08CF0100C5CEA0B0C05D00EE0C5
:102EC00040228DF80420012208E050EA010306D0D8
:102ED00030238DF804308DF8052002229146009BA6
:102EE00083F0080353EA0B030AD150EA010201D12F
:102EF000620705D530228DF804204FF001097F1EAE
:102F00003278582A04D039A20C920CAA02920BE013
:102F10003BA2F9E75B46009AFDF754F90C9B9B5CDA
:102F2000029A521E0292137050EA0102F2D10298E4
:102F300004A9081A00F1200B600702D524F480349C
:102F400000E001275F4502DDA7EB0B0000E0002059
:102F500000EB0B01009003984944401A0390E003F2
:102F600006D453462146179A039800F0A9F9054460
:102F7000002706E001A85246C05D179990476D1CD6
:102F80007F1C4F45F6DBE0030CD553462146179ACC
:102F9000039800F095F9054404E030205246179953
:102FA00090476D1C0099481E00900029F5DC08E050
:102FB0000298029952460078491C0291179990474D
:102FC0006D1CBBF10001ABF1010BF1DC5BE100F02A
:102FD00065F90544761C307800287FF40DAE19B0F1
:102FE0002846BDE8F08F0000092801003031323357
:102FF0003435363738396162636465660000000035
:10300000303132333435363738394142434445461E
:1030100000000000600700D4062708F1070020F038
:103020000700F0E80223804603F0004C5FEA0C0042
:1030300001D097A009E0200501D596A005E0E007A2
:1030400001D095A001E0AFF24C001390307823F04E
:10305000004365280CD006DC452809D046281DD041
:1030600047287FD13BE0662818D067287AD136E020
:103070000021112F01DB112000E0781CCDE90001B7
:1030800004A90CA8FFF7EEFCDDE90D010C9A4FF046
:10309000000B07F10109109200914EE04FF0004043
:1030A0000097CDE9011004A90CA8FFF7DBFCDDE9CE
:1030B0000D020C9B0F994FF0000B9146109300925C
:1030C00011B9791C00EB0109B7EB090003D4C0F179
:1030D000FF3B07F10109A9EB0700019042E0012F36
:1030E00000DA01270021112F01DD112000E0384610
:1030F000CDE9000104A90CA8FFF7B4FCDDE90D013E
:103100000C9A00914FF0000BB946109221070FD492
:10311000009A4A4503DA914601E0A9F10109B9F1A3
:10312000010F05DD109AA9F10101515C3029F4D09D
:10313000B84202DA10F1040F03DA0121CDE90110DF
:1031400010E0002803DC8344A9EB000102E0411CED
:10315000494500DD8946A0EB0B00401C01904FF073
:1031600000400290200705D40198484502DB4FF04B
:10317000FF30019000208DF84B0002980DF14B07B5
:10318000B0F1004F25D002200C902B200D9002981A
:1031900000280CDA404202902D200D9007E00A2111
:1031A0000298FDF79AF93031029007F8011D0C9949
:1031B000481E0C900029F2DC02980028EFD1791EFD
:1031C0000D980870307800F0200040F0450007F8B6
:1031D000020D11A8C01BC01D02901398007800B109
:1031E000012000EB0901019801EBE0710298014414
:1031F0000398401A401E0390E00306D4534621462C
:10320000179A039800F05CF805441398007818B1F9
:103210005246179990476D1CE00323D5534621462B
:10322000179A039800F04CF805441BE0BBF1000F1F
:1032300007DB0098584504DD1098179910F80B002B
:1032400001E0179930205246904701980BF1010B8D
:10325000401E05F10105019004D12E205246179918
:1032600090476D1CB9F10001A9F10109DEDC05E010
:1032700017F8010B5246179990476D1C0299481E8A
:1032800002900029F4DC53462146179A03989EE6E3
:103290002D0000002B000000200000002DE9F0416F
:1032A000044600251E461746880404D405E0394626
:1032B0002020B0476D1C641EF9D52846BDE8F0817A
:1032C0002DE9F041044600251E469046C80301D56D
:1032D000302700E02027880404D505E04146384621
:1032E000B0476D1C641EF9D52846BDE8F08100008A
:1032F00010B52DED088BB0EE418AB0EE409AF0EE9D
:10330000608AB0EE480A00F021F918EE100AFDF7C5
:10331000B5F841EC100BFEF717FFB0EE40AAF0EE47
:1033200060AA19EE100AFDF7A9F853EC1A2BFDF765
:1033300033F841EC1A0B18EE100AFDF79FF841EC38
:10334000100BFEF719FEB0EE40BAF0EE60BA18EEC0
:10335000900AFDF793F853EC1B2BFDF71DF853EC87
:103360001A2BFDF713F8FDF79CF8304C206018EE8F
:10337000100AFDF783F841EC100BFEF7FDFDB0EEEF
:1033800040AAF0EE60AA19EE100AFDF777F853ECA8
:103390001A2BFDF701F841EC190B18EE100AFDF796
:1033A0006DF841EC100BFEF7CFFEB0EE40AAF0EE48
:1033B00060AA18EE900AFDF761F853EC1A2BFCF79F
:1033C000EBFF53EC192BFCF740FFFDF76AF800EE1A
:1033D000900AC4ED010A94ED000A00F0E9F81448DF
:1033E0009FED140AD0ED000A134860EE800A0268CF
:1033F000FCEEE00A10EE901A516310490268D1ED1C
:10340000000A60EE800AFCEEE00A10EE901A91636A
:103410000B490068D1ED000A20EE800ABCEEC00A1C
:1034200010EE101AC163BDEC088B10BD0000002027
:10343000100000200000AF45300000200C000020EC
:103440000800002082B0CDE9000121F00040019089
:103450009DED000B02B051EC100B704713B54FF609
:10346000FF73012269460248FEF78CF900981CBDE3
:10347000B00000201FB5FDF731FBFEF7DFFAFEF7C5
:10348000DFF9FEF735FAFEF795FAFEF7B5FA1248BE
:10349000FDF726FF00F02EF8DFF84080DFF84090BF
:1034A000DFF840A0D8F80000FCF7E8FF06460F461A
:1034B000D9F80000FCF7E2FF04460D46DAF80000F8
:1034C000FCF7DCFF8DE8F00041EC100B06A053EC9C
:1034D000102BFEF719FDE5E770000020100000201A
:1034E0000C0000200800002025662C25662C25668F
:1034F0000D0A000010B500211248FEF791F80421D2
:103500001048FEF78DF808210E48FEF789F80021D3
:103510000C48FDF795FE04210A48FDF791FE0821AD
:103520000848FDF78DFE07480021026851630268D4
:1035300091630068C1630122BDE810409102024816
:10354000FDF7B8BA300000200014024010B510EEAC
:10355000100A2DED028BFCF791FF9FED138B41ECD0
:10356000100BB0EE481AF0EE681AFEF769FD51EC48
:10357000100BFCF796FF00EE100A10EE100AB5EEE5
:10358000C00AF1EE10FA02DBFCF778FF05E0FCF769
:1035900075FF53EC182BFCF758FEFCF782FFBDECCF
:1035A000028B00EE100A10BD44174154FB21194054
:1035B0009FED801AB6EE003A20EE011A00EEC31A13
:1035C000DFED7D1A60EE211A40EEC31AF5EEC01A47
:1035D000F1EE10FA01DD012000E00020B5EEC01A86
:1035E000F1EE10FA01DD012100E00021B0EE602AC9
:1035F00000EB4101B5EEC02AF1EE10FA01DD012029
:1036000000E0002001EB80016C484FF07E52F7EEA5
:10361000002A05293AD09FED682AF6EE003AB0EE6E
:10362000604A20EE022A14EE232A9FED624A042902
:1036300020EE040AB0EE604A14EE230A43D00629B5
:1036400060D0F1EE600A02297BD0032978D00129ED
:1036500057D130EE201A11EE101A914205DDC2EE5C
:10366000811A21EE800A61EEA00A32EEC01A30EE15
:10367000200A31EE601A21EE031A30EE010A80EDC5
:10368000000A80ED011A30EE810A55E031EEA00A01
:1036900010EE101A914205DD82EE801A61EE211AB9
:1036A00061EE200A32EEE10A31EEA01A30EE600A35
:1036B00020EE030A31EE001A70EE800A80ED001A47
:1036C000C0ED010A38E072EE000A10EE901A914245
:1036D00005DD82EEA01A21EE022A21EE000A72EE2A
:1036E000C20A70EEC00A60EE830A30EE201A32EE93
:1036F000000A80ED001A30EE200A80ED010AC0EDCC
:10370000020A704730EE810A10EE101A914205DD70
:10371000C2EE801A61EEA00A21EE811A32EEE00AB2
:1037200070EE810A30EE410A20EE030A70EE800A44
:1037300080EC020A31EE000A80ED020A704700E0D8
:103740001AE030EE820A10EE101A914205DD82EE88
:10375000801A61EE200A21EE022A32EEE00A70EEB3
:10376000820A30EE420A20EE030A80ED000A32EEB1
:10377000001A80ED011A19E031EE210A10EE101A3C
:10378000914205DDC2EE800A20EE811A60EEA11A98
:1037900032EEC10A30EE610A20EE030A71EE800AB1
:1037A000C0ED000A71EE210A80ED010A30EE800AB8
:1037B000C2E70000D7B35DBFD7B35D3F080000206C
:1037C00000000000000000000102030406070809D1
:1037D00000000000010203044C5555555555A53F06
:1037E0007751C1166CC156BF9015CB19A001FA3E96
:1037F000AD529C804F7E92BEC4B1B4BD9EEE213EC0
:10380000D43888BEE9FAA8BD00004054FB21F93F36
:103810003163621A61B4D03D0000601A61B4D03DDA
:103820007370032E8A19A33B0000002E8A19A33B54
:10383000C14920259A837B39000000000000000068
:103840006E83F9A22915444ED15727FCC0DD34F50B
:10385000999562DB4190433CAB6351FE61C5BBDE91
:103860003A6E24B7E0D24D42EA2E49061C92D109A5
:103870001CEB1DFE3EA729B1F53582E88444BB2E22
:1038800026709CE9417E5FB439D69139F43953836F
:103890008B5F849C3B28F9BDFF97F81F0F9805DECE
:1038A0008B112FEF1F6D0A5ACF7E366DB709CB27CC
:1038B000663F464F2DEA5F9EC7BA27757BF1E5EB61
:1038C000F739073DEA92528AB15FFB6B085D8D1FA5
:1038D000A6F810111111813FD561C119A0012ABFAD
:1038E0007DFEB157E31DC73EEB9C2B8AE6E55ABE31
:1038F0007CD5CF5A3AD9E53D1839000800000020A0
:1039000030000000382A0008483900083000002044
:10391000C0040000482A0008000000000000000069
:103920000000000000000000000000000000000097
:103930000100000010000000000000000024F4005E
:0839400000000000000000007F
:040000050800018965
:00000001FF
